:100000000C945B000C9478000C9478000C947800AD
:100010000C9478000C9478000C9478000C94780080
:100020000C9478000C9478000C9478000C94780070
:100030000C9478000C9478000C9489030C9478004C
:100040000C9478000C9478000C9478000C94780050
:100050000C9478000C9478000C9478000C94780040
:100060000C9478000C947800360539053C05480559
:10007000540560056305001F000000001F00001FFD
:10008000101010101F00001F181818181F00001F54
:100090001C1C1C1C1F00001F1E1E1E1E1F00001FFC
:1000A0001F1F1F1F1F0003070F1F0F070300181C30
:1000B0001E1F1E1C180011241FBECFEFD8E0DEBF8C
:1000C000CDBF12E0A0E0B1E0E6E0FCE002C00590A8
:1000D0000D92AE30B107D9F722E0AEE0B2E001C038
:1000E0001D92A332B207E1F70E9443030C9401066C
:1000F0000C9400008BB18C638BB9E0E06EC08AB1C8
:100100008F778AB984B1867E84B9E13069F028F0AE
:10011000E23089F0E330B1F01BC084B1806184B972
:1001200085B18F7E85B914C084B1886084B985B1EA
:10013000877F85B90DC084B1816084B985B18E7F18
:1001400085B906C08AB180688AB98BB18F778BB9BF
:1001500000C000C0000080E03DC0813099F028F070
:100160008230E9F0833041F134C04B9932C0F0E085
:10017000EE0FFF1FEE0FFF1FE80FF11DED5CFE4FAE
:10018000808108954D9925C0F0E0EE0FFF1FEE0F1E
:10019000FF1FE80FF11DED5CFE4F808108954C9923
:1001A00018C0F0E0EE0FFF1FEE0FFF1FE80FF11D6C
:1001B000ED5CFE4F808108954A990BC0F0E0EE0F90
:1001C000FF1FEE0FFF1FE80FF11DED5CFE4F80815A
:1001D00008958F5F843008F2EF5FE43008F48FCF2A
:1001E0008FEF08958AB1837C8AB98BB18C638BB908
:1001F00084B1867E84B985B1896185B98AB18F77EA
:100200008AB98BB180688BB90895CF93DF93EC01E5
:100210000E947A008F3F31F480930E028093000198
:1002200080E010C090910E02891309C090910001E6
:10023000891729F088838093000181E003C08093AF
:100240000E0280E0DF91CF91089565B1982F9074F0
:10025000492F50E0559547955595479555954795A4
:1002600055954795982F9078292F30E0022E232F0F
:10027000000C221F330B000C221F331F962F997F77
:10028000492B242B25B968B1982F9071492F50E044
:10029000559547955595479555954795982F907243
:1002A000292F30E035952795359527953595279554
:1002B000962F997F492B242B28B99BB192609BB92B
:1002C0009BB191609BB925ED2A95F1F700009BB198
:1002D0009E7F9BB99BB19D7F9BB995ED9A95F1F758
:1002E000000065B120E1829FC0011124AC0140747F
:1002F0005527559547955595479555954795559546
:1003000047959C0120783327022E232F000C221FB3
:10031000330B000C221F331F362F397F432B242B26
:1003200025B948B19C01207133273595279535951E
:100330002795359527958072992795958795959559
:10034000879595958795942F997F292B822B88B92E
:100350008BB182608BB98BB181608BB985ED8A9549
:10036000F1F700008BB18E7F8BB98BB18D7F8BB98C
:1003700095ED9A95F1F70000089565B1982F907466
:10038000492F50E055954795559547955595479573
:1003900055954795982F9078292F30E0022E232FDE
:1003A000000C221F330B000C221F331F962F997F46
:1003B000492B242B25B968B1982F9071492F50E013
:1003C000559547955595479555954795982F907212
:1003D000292F30E035952795359527953595279523
:1003E000962F997F492B242B28B99BB191609BB9FB
:1003F000EFE9FFE03197F1F700C000009BB19E7F6D
:100400009BB9EFE9FFE03197F1F700C0000065B15B
:10041000F0E18F9FC0011124AC0140745527559520
:1004200047955595479555954795559547959C0101
:1004300020783327022E232F000C221F330B000CB1
:10044000221F331F362F397F432B242B25B948B168
:100450009C0120713327359527953595279535953E
:100460002795807299279595879595958795959568
:100470008795942F997F292B822B88B98BB1816026
:100480008BB98FE99FE00197F1F700C000008BB1B5
:100490008E7F8BB9EFE9FFE03197F1F700C00000E4
:1004A000089581E00E94BD0108950F931F93CF939B
:1004B000DF93009769F0D62F8C01C0E007C0F801E8
:1004C000EC0FF11D80810E942501CF5FCD17B8F39D
:1004D000DF91CF911F910F910895623031F0633019
:1004E00031F0613029F4805C03C08C5E01C08C5A0D
:1004F00080680E94BD010895EF92FF920F931F93B1
:10050000CF93DF937C01862F90E0880F991F880F8F
:10051000991F880F991F8064C0E0D0E00DC0F701DB
:10052000EC0FFD1F149101E0080F0E94BD01812F07
:100530000E9425012196802FC830D10580F3DF91DC
:10054000CF911F910F91FF90EF900895CF93DF937C
:100550008FE59AEE0197F1F700C0000085B1897F21
:1005600085B988B1897F88B91BB887B1866087B99A
:1005700084B1866084B984B1866084B987B18660AD
:1005800087B98AB183608AB985B1897F85B988B115
:10059000866088B98BB181608BB98FE99FE0019744
:1005A000F1F700C000008BB18E7F8BB98FE99FE01F
:1005B0000197F1F700C0000085B1897F85B988B146
:1005C000866088B98BB181608BB98FE99FE0019714
:1005D000F1F700C000008BB18E7F8BB98FE99FE0EF
:1005E0000197F1F700C0000085B1897F85B988B116
:1005F000897F846088B98BB181608BB98FE99FE076
:100600000197F1F700C000008BB18E7F8BB98FE9A5
:100610009FE00197F1F700C0000088E20E94BD0151
:100620008CE00E94BD0160E0C0E00AC0D1E0D60FBE
:100630008C2F90E08A589F4F0E947C02C85F6D2FDC
:10064000C034A0F3DF91CF9108958CE00E94BD01EA
:1006500008951F93CF93DF93182F682F80E00E9497
:100660006D02C0E0D0E004C080E20E942501219626
:10067000C031D105CCF3612F80E00E946D02DF9183
:10068000CF911F9108950E94A6020E9451020E94DC
:1006900025030E94F2000E946F058AE00E94740503
:1006A0000E9479030E94B2030E946605FBCFCF939C
:1006B000DF931F92CDB7DEB7CE0101960E940501F0
:1006C000882331F089818093120281E080931102A6
:1006D0000F90DF91CF91089580911B020E948905B0
:1006E000E92FF0E0EE0FFF1FEF5FFE4F8081918159
:1006F00008951092200260E080E00E946D026AE09E
:1007000083E491E00E94550210921C0210921F0295
:1007100008951F920F920FB60F9211248F9380911C
:100720001B028F5F80931B02809117028F5F809363
:100730001702853029F481E0809318021092170285
:1007400080911D028F5F80931D028A3029F481E021
:1007500080931E0210921D028F910F900FBE0F907A
:100760001F90189580911802882321F0109218028A
:100770000E945703089580911102882399F0809177
:1007800012028A3279F481E08093200210921C02D6
:1007900010921F020E94510260E080E00E946D02F0
:1007A00010921102089580911F02811116C069E113
:1007B00081E091E00E946C039093220280932102D9
:1007C00065E00E94550281E080931F02109215029D
:1007D0001092160210921402089580911C02853125
:1007E000E8F00E94510260E086E00E946D0269E03C
:1007F0008EE491E00E94550280911602805D0E9475
:10080000250161E080E00E946D0282E08093200279
:1008100010921C0210921A021092190208958091EF
:100820001102882309F449C010921102809112022A
:10083000803300F1809112028A33E0F48091140237
:1008400090911202880F282F220F220F820F890FFA
:100850008053809314028091130261E00E946D0224
:10086000809112020E942501809113028F5F809374
:1008700013020895809112028332F9F481E00E94FC
:10088000290361E080E00E946D02109213028091C2
:100890001502E0912102F0912202E80FF11D9081F2
:1008A00080911402981304C084E08093200203C056
:1008B00083E08093200210921402089581E00E9448
:1008C000290360E0809115020E946D02809115025B
:1008D000E0912102F0912202E80FF11D80810E9437
:1008E0002501809115028F5F80931502853020F4D9
:1008F00082E080932002089585E080932002109288
:100900001C020895809116028F5F8093160281E089
:100910000E94290380911602833068F460E08FE022
:100920000E946D0280911602805D0E94250182E086
:100930008093200205C086E0809320020E9451022D
:1009400061E080E00E946D0210921C020895809187
:100950001002811109C06AE088E591E00E94550209
:1009600081E080931002089580911C02833340F04F
:100970000E94510210922002109210020E947903EC
:1009800008950F931F93CF93DF9300D000D000D032
:10099000CDB7DEB780910F02811140C00E94510295
:1009A00060E081E00E946D026BE083E691E00E94CE
:1009B000550261E080E00E946D02209119023091A1
:1009C0001A02ADECBCEC0E94BD05969587959695F4
:1009D00087959695879590931A028093190268E0FF
:1009E0008FE691E00E9455024AE08E010F5F1F4F93
:1009F000B8018091190290911A020E94CC05F80169
:100A000001900020E9F73197BF01601B710BC8010D
:100A10000E94550281E080930F020CC080911C025D
:100A2000833340F00E9451021092200210920F0274
:100A30000E94790326960FB6F894DEBF0FBECDBF95
:100A4000DF91CF911F910F91089580911C028F5FCC
:100A500080931C02E09120028E2F90E08730910558
:100A6000A0F5FC01EC5CFF4F0C94B7050E94BB03A2
:100A700008950E94D30308958091190290911A025B
:100A8000019690931A02809319020E940F04089510
:100A90008091190290911A02019690931A02809304
:100AA00019020E94820408958091190290911A02FD
:100AB000019690931A02809319020E945E04089591
:100AC0000E94C10408950E94A704089580911E0207
:100AD000882321F010921E020E942505089582E0CD
:100AE00084BD85E085BD0895282F30E0A9E0BDE3F1
:100AF0000E94BD0528EE33E040E050E00E949505DD
:100B0000215027BDEEE6F0E08081826080837894FA
:100B10000895991B79E004C0991F961708F0961B59
:100B2000881F7A95C9F780950895A1E21A2EAA1B0D
:100B3000BB1BFD010DC0AA1FBB1FEE1FFF1FA2178D
:100B4000B307E407F50720F0A21BB30BE40BF50B8A
:100B5000661F771F881F991F1A9469F76095709513
:100B6000809590959B01AC01BD01CF010895EE0FDA
:100B7000FF1F0590F491E02D0994A29FB001B39F4F
:100B8000C001A39F700D811D1124911DB29F700D96
:100B9000811D1124911D0895BB274A3031F49923FA
:100BA00022F4BDE2909581959F4F0C94D805BB2708
:100BB000FB015527AA27880F991FAA1FA41710F019
:100BC000A41B83955051B9F7A05DAA3308F0A95D25
:100BD000A193009779F7B111B1931192CB010C94C5
:100BE000F105DC01FC01672F71917723E1F7329762
:100BF00004C07C916D9370836291AE17BF07C8F3F8
:060C00000895F894FFCFF7
:100C0600FF78017E0184018A01900196019C01A270
:100C160001A801AE01B401BA01C001C601CC01D2DE
:100C260001D801DE01E401EA01F001F601FC01024E
:100C36000208023132334134353642373839432AD5
:100C460030234450726573696F6E65202A004572C1
:100C5600726F7265733A2000446572726F74612018
:100C66003A6300566963746F726961203A440054AE
:100C760069656D706F3A20004172626F6C00426F59
:100C8600746F6E004344794D4300436C61764500B2
:100C9600466163696C00476166617300486F6A610B
:100CA60073004C6942726F004C616E7A61004E6946
:100CB60065766500506552726F0050656345530056
:100CC6005069416E6F005072594B6500525545444C
:100CD600610053455249450053616C5564005361A8
:100CE6006C75640053696C6C61005465636C6100DB
:100CF60056616C6F7200566572646500596E485293
:0E0D06007A0068415264440073696C6C6100AD
:00000001FF
