S01700004763634170706C69636174696F6E312E737265635B
S11300000C9434000C943E000C943E000C943E007E
S11300100C943E000C943E000C943E000C943E0064
S11300200C943E000C943E000C943E000C943E0054
S11300300C943E000C943E000C943E000C943E0044
S11300400C943E000C943E000C943E000C943E0034
S11300500C943E000C943E000C943E000C943E0024
S11300600C943E000C943E0011241FBECFEFD8E048
S1130070DEBFCDBF0E9440000C9420010C94000010
S11300808FEF8AB987B187B988B1836088B984B1A1
S1130090886184B92FC0319907C085B18F7E85B935
S11300A085B1886085B903C085B1877E85B98AEA40
S11300B08BB92FEF31EE44E0215030404040E1F75E
S11300C000C0000085E58BB95FEF61EE84E051501C
S11300D060408040E1F700C0000030990BC09FEF02
S11300E025EA3EE0915020403040E1F700C0000096
S11300F091E039C0309BFECFCECF309B34C02EC0B0
S113010041E050E0022E02C0440F551F0A94E2F76A
S11301104BB94FEF51EE64E0415050406040E1F77D
S113012000C00000319907C085B1806185B985B1EF
S1130130877F85B903C085B1877E85B930990BC0A7
S11301408FEF95EA2EE0815090402040E1F700C007
S1130150000090E008C02F5F3F4F02C020E030E075
S1130160283031056CF29111C8CF81E066C0309B14
S113017064C02BC041E050E0022E02C0440F551F62
S11301800A94E2F74BB94FEF51EE64E0415050400E
S11301906040E1F700C00000319904C045B14861F6
S11301A045B903C045B1477E45B930990BC08FEFBF
S11301B025EA3EE0815020403040E1F700C00000D5
S11301C0892F08C02150310902C027E030E01216FF
S11301D0130684F2882309F48DCF20E030E02AC08E
S11301E041E050E0022E02C0440F551F0A94E2F78A
S11301F04BB94FEF51EE64E0415050406040E1F79D
S113020000C00000319904C045B1486145B903C03C
S113021045B1477E45B930990BC08FEF25EA3EE0E2
S1130220815020403040E1F700C00000892F05C014
S11302302F5F3F4F273031059CF2811198CF5ACF61
S1070240F894FFCF5C
S9030000FC
