:100000000C9434000C9451000C9451000C94510049
:100010000C9451000C9451000C9451000C9451001C
:100020000C9451000C9451000C9451000C9451000C
:100030000C9451000C9451000C9470020C945100DB
:100040000C9451000C9451000C9454030C949D0298
:100050000C9451000C9451000C9451000C945100DC
:100060000C9451000C94510011241FBECFEFD8E026
:10007000DEBFCDBF12E0A0E0B1E0E8E3F0E102C0F6
:1000800005900D92A43DB107D9F724E0A4EDB2E0AC
:1000900001C01D92A637B207E1F70E9416010C9429
:1000A0001A080C9400001092B90088E98093B800F7
:1000B00084E08093BC00089584EA8093BC00809122
:1000C000BC008823E4F708958093BB0084E8809304
:1000D000BC008091BC008823E4F70895811104C01E
:1000E00084EC8093BC0003C084E88093BC008091C2
:1000F000BC008823E4F78091BB00089584E98093D5
:10010000BC000895CF93DF93EC0160E071E00E94A2
:100110001905892B41F481E08093D90283E091E0B5
:100120000E940D0330C060E171E0CE010E9419050C
:10013000892B39F41092D90284E191E00E940D03D9
:1001400022C062E271E0CE010E941905892B41F4C0
:1001500081E08093D7028BE291E00E940D0313C0EF
:100160006BE671E0CE010E941905892B41F481E014
:100170008093D60285E791E00E940D0304C084EBD2
:1001800091E00E940D03DF91CF9108950E94100429
:100190008093D4028091D402882359F08EED92E0AE
:1001A0000E949D018FEC91E00E940D031092D702F6
:1001B00008958AEF91E00E940D0308956DE673E0C3
:1001C0000E94B9038093D4028091D402882351F015
:1001D0001092D60285E08093740381E292E00E943F
:1001E0000D0308958EE492E00E940D030895FC0132
:1001F0003281FB012281321318C0FC019181FB0185
:100200008181981312C081E08093D8028091740399
:100210008150809374038CE692E00E940D038091DC
:100220007403811102C01092D80208950E945300F5
:100230000E9493020E94D3020E94D9020E94DF0210
:100240000E946402789485E792E00E940D038091F9
:10025000DD02882321F181E08093D5028091D702CD
:10026000811104C08091D602882389F08091D70241
:10027000882321F08DEE92E00E94C6008091D60284
:10028000882349F08DEE92E00E94DE0004C08DEEDE
:1002900092E00E9482001092D5021092DD028091BD
:1002A00075038823A1F285EE92E00E94CE01809131
:1002B000D902882311F18091D60281111EC080914C
:1002C000D70281111AC08091D802811116C0809185
:1002D000D502811112C08091730381110EC040912B
:1002E000E5025091E6026091E7027091E802809188
:1002F000E9029091EA020E941B0380917403882313
:1003000031F06DE673E085EE92E00E94F700109206
:1003100075039DCF9DEC899F912D112496959695FF
:10032000969520E1929FA0011124990F292F220F69
:10033000220F920F891B842B0895CF93DF93EC013A
:100340000E945C0080ED0E94640080E00E946400D6
:1003500088810E948A010E94640089810E948A012A
:100360000E9464008A810E948A010E94640080E0E9
:100370000E9464008B810E948A010E9464008C812B
:100380000E948A010E9464008D810E948A010E945D
:1003900064000E947E00DF91CF910895CF93DF9398
:1003A000EC010E945C0080ED0E94640080E00E94ED
:1003B00064000E947E000E945C0081ED0E94640047
:1003C00080E00E946E00282F207730E03595279539
:1003D000359527953595279535952795220F922F99
:1003E000990F990F290F8F70280F288380E00E94A2
:1003F0006E00282F207730E0359527953595279585
:100400003595279535952795220F922F990F990F9E
:10041000290F8F70280F298380E00E946E00282FFB
:10042000207330E035952795359527953595279597
:1004300035952795220F922F990F990F290F8F70BD
:10044000280F2A8380E00E946E0080E00E946E00E8
:10045000282F207330E035952795359527953595CC
:10046000279535952795220F922F990F990F290FD0
:100470008F70280F2B8380E00E946E00282F207140
:1004800030E0359527953595279535952795359500
:100490002795220F922F990F990F290F8F70280FF0
:1004A0002C8381E00E946E00982F92959F70990F87
:1004B000292F220F220F920F8F70890F8D830E9498
:1004C0007E00DF91CF91089582E084BD83E085BDF9
:1004D00089EF87BDEEE6F0E0808182608083089539
:1004E0001F920F920FB60F9211242F938F939F9309
:1004F0008091EB029091EC0201969093EC02809334
:10050000EB02883E934039F481E0809375031092AA
:10051000EC021092EB029F918F912F910F900FBEE2
:100520000F901F90189588E08093C10086E080931B
:10053000C20087E68093C40008951F920F920FB601
:100540000F9211248F939F93EF93FF939091DB026F
:100550008091DC02981308C01092DA02E1ECF0E01E
:1005600080818F7D808316C0E091DB02F0E0EA5845
:10057000FC4F80818093C6008091DB0290E0019661
:100580008F779078992324F4019780689F6F019664
:100590008093DB02FF91EF919F918F910F900FBE9F
:1005A0000F901F901895E1ECF0E0808188608083C7
:1005B0000895E1ECF0E08081806180830895E1ECB2
:1005C000F0E080818068808308952091DC0230E033
:1005D0002F5F3F4F2F773078332334F42150310988
:1005E00020683F6F2F5F3F4F9091DB022917E1F3A7
:1005F000E091DC02F0E0EA58FC4F80832093DC02BB
:100600008091DA02811108C081E08093DA02E1EC86
:10061000F0E08081806280830895CF93DF93EC01C6
:1006200004C0219690E00E94E50288818111F9CFF3
:10063000DF91CF9108950F931F93CF93DF93CDB7A1
:10064000DEB7E8970FB6F894DEBF0FBECDBF1F929E
:100650004F931F925F931F926F931F929F931F92CE
:100660008F931F927F9386EA92E09F938F931F92BE
:1006700082E38F938E010F5F1F4F1F930F930E9492
:100680002205C8010E940D030FB6F894DEBF0FBE0D
:10069000CDBFE8960FB6F894DEBF0FBECDBFDF9199
:1006A000CF911F910F9108951F920F920FB60F9245
:1006B00011242F933F934F935F936F937F938F9367
:1006C0009F93AF93BF93EF93FF938091C6008830C1
:1006D00011F08F3749F49091E402992329F0909119
:1006E000E40291509093E4028D3011F08A3091F43D
:1006F000E091E402F0E0E351FD4F10821092E40239
:1007000081E08093DD02109273038BE492E00E94FB
:100710000D0317C09091E4029F3798F491E09093F5
:100720007303883059F08F3749F0E091E4029E0F4F
:100730009093E402F0E0E351FD4F808390E00E944B
:10074000E502FF91EF91BF91AF919F918F917F91C2
:100750006F915F914F913F912F910F900FBE0F902E
:100760001F9018958153883010F481E0089580E03F
:100770000895EF92FF920F931F93CF93DF93FC01A5
:1007800001900020E9F73197E81BF90B3597D1F577
:10079000FC0122812A33C1F57B01EC0100E010E06D
:1007A0000DC00230110541F0FE01E00FF11F808104
:1007B0000E94B203882369F10F5F1F4F05301105B6
:1007C00084F3888190E0C097880F282F220F220F92
:1007D000820F9981282F290F20538B8190E0C09799
:1007E000880F982F990F990F890F9C81890F80533B
:1007F000283160F48C3360F4F70122838183108206
:1008000081E007C080E005C080E003C080E001C057
:1008100080E0DF91CF911F910F91FF90EF900895AD
:100820000F931F93CF93FC0101900020E9F73197BC
:10083000E81BF90B3E9709F0B7C0DC0112962C912A
:1008400012972F3209F0B2C015962C9115972F32BE
:1008500009F0AEC018962C911897203209F0AAC062
:100860001B962C911B972A3309F0A6C02C9130E0DF
:1008700020533109220F522F550F550F250F119676
:100880005C911197520F40ED450F13962C911397E1
:1008900030E020533109220FE22FEE0FEE0F2E0F22
:1008A00014963C911497E22FE30FE05316962C9187
:1008B000169730E020533109220FF22FFF0FFF0F60
:1008C0002F0F17963C911797F22FF30FF0531996AD
:1008D0002C91199730E020533109220F322F330F1A
:1008E000330F230F1A963C911A97230FC0EDC20FB6
:1008F0001C962C911C9730E020533109220F322F87
:10090000330F330F230F1D968C91280F2053515313
:100910005F3108F053C0EE2309F452C0ED3008F007
:1009200051C0C83108F050C02C3308F04FC0E4303B
:1009300031F0E63021F0E93011F0EB3019F44F31AD
:1009400008F046C0E230E1F40F2F10E00053184FDA
:10095000C80183709927892B39F4C80164E670E0D7
:100960000E94F104892B39F4C80160E971E00E940A
:10097000F104892B19F44E3118F02CC04D3160F57B
:10098000AEEDB2E013964C9313971496EC93149734
:100990001596FC9315971296CC93129711962C935B
:1009A00011971C9281E019C080E017C080E015C04B
:1009B00080E013C080E011C080E00FC080E00DC077
:1009C00080E00BC080E009C080E007C080E005C087
:1009D00080E003C080E001C080E0CF911F910F91C3
:1009E000089597FB072E16F4009407D077FD09D0E1
:1009F0000E94050507FC05D03EF4909581959F4F18
:100A00000895709561957F4F0895AA1BBB1B51E116
:100A100007C0AA1FBB1FA617B70710F0A61BB70B6E
:100A2000881F991F5A95A9F780959095BC01CD0113
:100A30000895FB01DC018D91019080190110D9F31B
:100A4000990B0895AEE0B0E0E8E2F5E00C94F10710
:100A50000D891E898F89988D26E02C831A8309833E
:100A600097FF02C080E090E801979E838D83AE01DE
:100A7000455E5F4F698D7A8DCE0101960E945205C9
:100A80004D815E8157FD0AC02F813885421753077B
:100A90000CF49A01F801E20FF31F10822E96E4E0A5
:100AA0000C940D08ABE0B0E0E8E5F5E00C94E3074A
:100AB0006C017B018A01FC0117821682838181FF10
:100AC000CCC1CE0101963C01F6019381F70193FD63
:100AD000859193FF81917F01882309F4BAC1853202
:100AE00039F493FD859193FF81917F01853229F43B
:100AF000B60190E00E944907E7CF912C212C312CC0
:100B0000FFE1F315D8F08B3279F038F4803279F0C8
:100B10008332A1F4232D20611DC08D3261F080331A
:100B200069F4232D216016C0832D8260382EE32DB9
:100B3000E4603E2E2AC0F32DF8601DC037FC2DC0A6
:100B400020ED280F2A3040F08E32B9F436FC81C1F6
:100B5000232D2064322E19C036FE06C08AE0989EEE
:100B6000200D1124922E11C0EAE02E9E200D11249A
:100B7000222EF32DF0623F2E08C08C3621F4832DF7
:100B80008068382E02C0883641F4F70193FD8591C4
:100B900093FF81917F018111B3CF982F9F7D955451
:100BA000933028F40C5F1F4F9FE399830DC0833669
:100BB00031F0833771F0833509F059C021C0F80155
:100BC000808189830E5F1F4F88248394912C530169
:100BD00013C02801F2E04F0E511CF801A080B18033
:100BE00036FE03C0692D70E002C06FEF7FEFC501D4
:100BF0000E943E074C018201F32DFF773F2E16C065
:100C0000280122E0420E511CF801A080B18036FE7E
:100C100003C0692D70E002C06FEF7FEFC5010E9435
:100C200033074C01F32DF0683F2E820133FC1BC0CB
:100C3000822D90E088169906B0F4B60180E290E02B
:100C40000E9449072A94F4CFF50137FC859137FEBD
:100C500081915F01B60190E00E94490721102A941A
:100C600021E0821A91088114910471F7E8C084365A
:100C700011F0893641F5F80137FE07C060817181B6
:100C8000828193810C5F1F4F08C060817181072EA4
:100C9000000C880B990B0E5F1F4FF32DFF763F2E34
:100CA00097FF09C090958095709561957F4F8F4F04
:100CB0009F4FF0683F2E2AE030E0A3010E94850795
:100CC000882E861845C0853731F4232D2F7EB22E0D
:100CD0002AE030E025C0932D997FB92E8F36C1F0E0
:100CE00018F4883579F0B5C0803719F0883721F0CD
:100CF000B0C0E92FE061BE2EB4FE0DC0FB2DF46044
:100D0000BF2E09C034FE0AC0292F2660B22E06C0AD
:100D100028E030E005C020E130E002C020E132E010
:100D2000F801B7FE07C060817181828193810C5FF9
:100D30001F4F06C06081718180E090E00E5F1F4F01
:100D4000A3010E948507882E8618FB2DFF773F2E72
:100D500036FE0DC0232D2E7FA22E891458F434FEAA
:100D60000BC032FC09C0832D8E7EA82E05C0B82C86
:100D7000A32C03C0B82C01C0B92CA4FE0FC0FE01E7
:100D8000E80DF11D8081803321F49A2D997EA92EE2
:100D900009C0A2FE06C0B394B39404C08A2D86781D
:100DA00009F0B394A3FC11C0A0FE06C0B21488F4ED
:100DB000280C922C9B180EC0B21460F4B60180E28D
:100DC00090E00E944907B394F7CFB21418F42B189F
:100DD00002C0982C212CA4FE10C0B60180E390E044
:100DE0000E944907A2FE17C0A1FC03C088E790E05B
:100DF00002C088E590E0B6010CC08A2D867859F0D3
:100E0000A1FE02C08BE201C080E2A7FC8DE2B60128
:100E100090E00E944907891438F4B60180E390E01D
:100E20000E9449079A94F7CF8A94F301E80DF11DC7
:100E30008081B60190E00E9449078110F5CF222001
:100E400009F442CEB60180E290E00E9449072A945C
:100E5000F6CFF6018681978102C08FEF9FEF2B9628
:100E6000E2E10C94FF07FC01059061507040011015
:100E7000D8F7809590958E0F9F1F0895FC016150C3
:100E8000704001900110D8F7809590958E0F9F1FAC
:100E900008950F931F93CF93DF93FB01238121FDCF
:100EA00003C08FEF9FEF2CC022FF16C046815781F1
:100EB000248135814217530744F4A081B1819D01FB
:100EC0002F5F3F4F318320838C93268137812F5FA3
:100ED0003F4F3783268314C08B01EC01FB01008454
:100EE000F185E02D0995892BE1F6D80116968D91B3
:100EF0009C911797019617969C938E931697CE0107
:100F0000DF91CF911F910F910895FA01AA27283000
:100F100051F1203181F1E8946F936E7F6E5F7F4FC6
:100F20008F4F9F4FAF4FB1E03ED0B4E03CD0670F42
:100F3000781F891F9A1FA11D680F791F8A1F911D95
:100F4000A11D6A0F711D811D911DA11D20D009F4E5
:100F500068943F912AE0269F11243019305D319327
:100F6000DEF6CF010895462F4770405D4193B3E010
:100F70000FD0C9F7F6CF462F4F70405D4A3318F0B7
:100F8000495D31FD4052419302D0A9F7EACFB4E068
:100F9000A6959795879577956795BA95C9F7009720
:100FA0006105710508959B01AC010A2E06945795C1
:100FB000479537952795BA95C9F7620F731F841F18
:100FC000951FA01D08952F923F924F925F926F92AE
:100FD0007F928F929F92AF92BF92CF92DF92EF92C9
:100FE000FF920F931F93CF93DF93CDB7DEB7CA1B4A
:100FF000DB0B0FB6F894DEBF0FBECDBF09942A8875
:10100000398848885F846E847D848C849B84AA841C
:10101000B984C884DF80EE80FD800C811B81AA81A9
:10102000B981CE0FD11D0FB6F894DEBF0FBECDBF74
:08103000ED010895F894FFCFD3
:101038004F4E003E3E204D6F646F204F4E0D0A000C
:101048004F4646003E3E204D6F646F204F46460D8A
:101058000A00534554204441544500496E6772655F
:101068007365206665636861207920686F72612006
:10107800636F6E20656C207369677569656E74654A
:1010880020666F726D61746F3A2044442F4D4D2F66
:1010980059592048483A4D4D0D0A005345542041AE
:1010A8004C41524D00496E6772657365206C612032
:1010B800686F7261206465206C6120616C61726D7B
:1010C8006120636F6E20656C207369677569656E52
:1010D800746520666F726D61746F3A2048483A4DA6
:1010E8004D0D0A003E3E20436F6D616E646F206EA9
:1010F8006F207265636F6E6F6369646F0D0A0046D7
:1011080065636861207920686F7261206163747516
:10111800616C697A6164617320636F72726563746C
:10112800616D656E74652E0D0A00466F726D61748F
:101138006F20696E636F72726563746F2E20284426
:10114800442F4D4D2F59592048483A4D4D290D0AE5
:1011580000486F726120646520616C61726D612066
:1011680061637475616C697A61646120636F72721E
:10117800656374616D656E74652E200D0A00466F97
:10118800726D61746F20696E636F72726563746FDC
:101198002E202848483A4D4D290D0A00414C41520D
:1011A8004D410D0A004269656E76656E69646F2E61
:1011B800204F7063696F6E6573204F4E204F46460F
:1011C8002053455420444154452053455420414C14
:1011D80041524D0D0A0046454348413A20253032D8
:1011E800642F253032642F2530326420484F524115
:1011F8003A20253032643A253032643A2530326458
:041208000D0A0000CB
:00000001FF
